{"abi":[{"type":"constructor","inputs":[{"name":"_usdc","type":"address","internalType":"address"},{"name":"_feeRecipient","type":"address","internalType":"address"},{"name":"_feeBps","type":"uint16","internalType":"uint16"}],"stateMutability":"nonpayable"},{"type":"function","name":"createEscrow","inputs":[{"name":"beneficiary","type":"address","internalType":"address"},{"name":"amount","type":"uint256","internalType":"uint256"},{"name":"deadline","type":"uint256","internalType":"uint256"},{"name":"memoHash","type":"bytes32","internalType":"bytes32"}],"outputs":[{"name":"id","type":"uint256","internalType":"uint256"}],"stateMutability":"nonpayable"},{"type":"function","name":"escrows","inputs":[{"name":"","type":"uint256","internalType":"uint256"}],"outputs":[{"name":"depositor","type":"address","internalType":"address"},{"name":"beneficiary","type":"address","internalType":"address"},{"name":"amount","type":"uint256","internalType":"uint256"},{"name":"deadline","type":"uint256","internalType":"uint256"},{"name":"memoHash","type":"bytes32","internalType":"bytes32"},{"name":"status","type":"uint8","internalType":"enum USDCCoordinator.Status"}],"stateMutability":"view"},{"type":"function","name":"feeBps","inputs":[],"outputs":[{"name":"","type":"uint16","internalType":"uint16"}],"stateMutability":"view"},{"type":"function","name":"feeRecipient","inputs":[],"outputs":[{"name":"","type":"address","internalType":"address"}],"stateMutability":"view"},{"type":"function","name":"fundEscrow","inputs":[{"name":"id","type":"uint256","internalType":"uint256"}],"outputs":[],"stateMutability":"nonpayable"},{"type":"function","name":"getEscrow","inputs":[{"name":"id","type":"uint256","internalType":"uint256"}],"outputs":[{"name":"","type":"tuple","internalType":"struct USDCCoordinator.Escrow","components":[{"name":"depositor","type":"address","internalType":"address"},{"name":"beneficiary","type":"address","internalType":"address"},{"name":"amount","type":"uint256","internalType":"uint256"},{"name":"deadline","type":"uint256","internalType":"uint256"},{"name":"memoHash","type":"bytes32","internalType":"bytes32"},{"name":"status","type":"uint8","internalType":"enum USDCCoordinator.Status"}]}],"stateMutability":"view"},{"type":"function","name":"nextEscrowId","inputs":[],"outputs":[{"name":"","type":"uint256","internalType":"uint256"}],"stateMutability":"view"},{"type":"function","name":"refundEscrow","inputs":[{"name":"id","type":"uint256","internalType":"uint256"}],"outputs":[],"stateMutability":"nonpayable"},{"type":"function","name":"releaseEscrow","inputs":[{"name":"id","type":"uint256","internalType":"uint256"}],"outputs":[],"stateMutability":"nonpayable"},{"type":"function","name":"setFeeBps","inputs":[{"name":"_feeBps","type":"uint16","internalType":"uint16"}],"outputs":[],"stateMutability":"nonpayable"},{"type":"function","name":"setFeeRecipient","inputs":[{"name":"_feeRecipient","type":"address","internalType":"address"}],"outputs":[],"stateMutability":"nonpayable"},{"type":"function","name":"usdc","inputs":[],"outputs":[{"name":"","type":"address","internalType":"address"}],"stateMutability":"view"},{"type":"event","name":"EscrowCreated","inputs":[{"name":"id","type":"uint256","indexed":true,"internalType":"uint256"},{"name":"depositor","type":"address","indexed":true,"internalType":"address"},{"name":"beneficiary","type":"address","indexed":true,"internalType":"address"},{"name":"amount","type":"uint256","indexed":false,"internalType":"uint256"},{"name":"deadline","type":"uint256","indexed":false,"internalType":"uint256"},{"name":"memoHash","type":"bytes32","indexed":false,"internalType":"bytes32"}],"anonymous":false},{"type":"event","name":"EscrowFunded","inputs":[{"name":"id","type":"uint256","indexed":true,"internalType":"uint256"}],"anonymous":false},{"type":"event","name":"EscrowRefunded","inputs":[{"name":"id","type":"uint256","indexed":true,"internalType":"uint256"}],"anonymous":false},{"type":"event","name":"EscrowReleased","inputs":[{"name":"id","type":"uint256","indexed":true,"internalType":"uint256"},{"name":"fee","type":"uint256","indexed":false,"internalType":"uint256"},{"name":"payout","type":"uint256","indexed":false,"internalType":"uint256"}],"anonymous":false}],"bytecode":{"object":"0x60a060405260018055348015610013575f5ffd5b5060405161204038038061204083398181016040528101906100359190610229565b5f73ffffffffffffffffffffffffffffffffffffffff168373ffffffffffffffffffffffffffffffffffffffff16036100a3576040517f08c379a000000000000000000000000000000000000000000000000000000000815260040161009a906102d3565b60405180910390fd5b8273ffffffffffffffffffffffffffffffffffffffff1660808173ffffffffffffffffffffffffffffffffffffffff1681525050815f5f6101000a81548173ffffffffffffffffffffffffffffffffffffffff021916908373ffffffffffffffffffffffffffffffffffffffff1602179055506101258161012d60201b60201c565b505050610359565b60c88161ffff161115610175576040517f08c379a000000000000000000000000000000000000000000000000000000000815260040161016c9061033b565b60405180910390fd5b805f60146101000a81548161ffff021916908361ffff16021790555050565b5f5ffd5b5f73ffffffffffffffffffffffffffffffffffffffff82169050919050565b5f6101c182610198565b9050919050565b6101d1816101b7565b81146101db575f5ffd5b50565b5f815190506101ec816101c8565b92915050565b5f61ffff82169050919050565b610208816101f2565b8114610212575f5ffd5b50565b5f81519050610223816101ff565b92915050565b5f5f5f606084860312156102405761023f610194565b5b5f61024d868287016101de565b935050602061025e868287016101de565b925050604061026f86828701610215565b9150509250925092565b5f82825260208201905092915050565b7f555344433d3000000000000000000000000000000000000000000000000000005f82015250565b5f6102bd600683610279565b91506102c882610289565b602082019050919050565b5f6020820190508181035f8301526102ea816102b1565b9050919050565b7f66656520746f6f206869676800000000000000000000000000000000000000005f82015250565b5f610325600c83610279565b9150610330826102f1565b602082019050919050565b5f6020820190508181035f83015261035281610319565b9050919050565b608051611cb361038d5f395f8181610480015281816105b10152818161087201528181610bb20152610cad0152611cb35ff3fe608060405234801561000f575f5ffd5b50600436106100b2575f3560e01c80637d19e5961161006f5780637d19e5961461017d57806389cb29dd146101ad578063c9c31af5146101cb578063e74b981b146101e7578063ed65316414610203578063f41b994f1461021f576100b2565b8063012f52ee146100b6578063023b1fc9146100eb57806324a9d85314610107578063356f9dfd146101255780633e413bee14610141578063469048401461015f575b5f5ffd5b6100d060048036038101906100cb91906111c8565b61024f565b6040516100e2969594939291906112cc565b60405180910390f35b61010560048036038101906101009190611362565b6102d1565b005b61010f6102dd565b60405161011c919061139c565b60405180910390f35b61013f600480360381019061013a91906111c8565b6102f0565b005b6101496105af565b60405161015691906113b5565b60405180910390f35b6101676105d3565b60405161017491906113b5565b60405180910390f35b610197600480360381019061019291906111c8565b6105f7565b6040516101a49190611483565b60405180910390f35b6101b5610723565b6040516101c2919061149c565b60405180910390f35b6101e560048036038101906101e091906111c8565b610729565b005b61020160048036038101906101fc91906114df565b610981565b005b61021d600480360381019061021891906111c8565b6109c3565b005b61023960048036038101906102349190611534565b610de8565b604051610246919061149c565b60405180910390f35b6002602052805f5260405f205f91509050805f015f9054906101000a900473ffffffffffffffffffffffffffffffffffffffff1690806001015f9054906101000a900473ffffffffffffffffffffffffffffffffffffffff1690806002015490806003015490806004015490806005015f9054906101000a900460ff16905086565b6102da816110bc565b50565b5f60149054906101000a900461ffff1681565b5f60025f8381526020019081526020015f2090506002600481111561031857610317611259565b5b816005015f9054906101000a900460ff16600481111561033b5761033a611259565b5b1461037b576040517f08c379a0000000000000000000000000000000000000000000000000000000008152600401610372906115f2565b60405180910390fd5b805f015f9054906101000a900473ffffffffffffffffffffffffffffffffffffffff1673ffffffffffffffffffffffffffffffffffffffff163373ffffffffffffffffffffffffffffffffffffffff161461040b576040517f08c379a00000000000000000000000000000000000000000000000000000000081526004016104029061165a565b60405180910390fd5b8060030154421015610452576040517f08c379a0000000000000000000000000000000000000000000000000000000008152600401610449906116c2565b60405180910390fd5b6004816005015f6101000a81548160ff0219169083600481111561047957610478611259565b5b02179055507f000000000000000000000000000000000000000000000000000000000000000073ffffffffffffffffffffffffffffffffffffffff1663a9059cbb825f015f9054906101000a900473ffffffffffffffffffffffffffffffffffffffff1683600201546040518363ffffffff1660e01b81526004016104ff9291906116e0565b6020604051808303815f875af115801561051b573d5f5f3e3d5ffd5b505050506040513d601f19601f8201168201806040525081019061053f919061173c565b61057e576040517f08c379a0000000000000000000000000000000000000000000000000000000008152600401610575906117b1565b60405180910390fd5b817f2babb5cd458b6d41108d6d793a75e29ca524e7caa20e2da6c994462010920a7260405160405180910390a25050565b7f000000000000000000000000000000000000000000000000000000000000000081565b5f5f9054906101000a900473ffffffffffffffffffffffffffffffffffffffff1681565b6105ff611123565b60025f8381526020019081526020015f206040518060c00160405290815f82015f9054906101000a900473ffffffffffffffffffffffffffffffffffffffff1673ffffffffffffffffffffffffffffffffffffffff1673ffffffffffffffffffffffffffffffffffffffff168152602001600182015f9054906101000a900473ffffffffffffffffffffffffffffffffffffffff1673ffffffffffffffffffffffffffffffffffffffff1673ffffffffffffffffffffffffffffffffffffffff168152602001600282015481526020016003820154815260200160048201548152602001600582015f9054906101000a900460ff16600481111561070657610705611259565b5b600481111561071857610717611259565b5b815250509050919050565b60015481565b5f60025f8381526020019081526020015f2090506001600481111561075157610750611259565b5b816005015f9054906101000a900460ff16600481111561077457610773611259565b5b146107b4576040517f08c379a00000000000000000000000000000000000000000000000000000000081526004016107ab906115f2565b60405180910390fd5b805f015f9054906101000a900473ffffffffffffffffffffffffffffffffffffffff1673ffffffffffffffffffffffffffffffffffffffff163373ffffffffffffffffffffffffffffffffffffffff1614610844576040517f08c379a000000000000000000000000000000000000000000000000000000000815260040161083b9061165a565b60405180910390fd5b6002816005015f6101000a81548160ff0219169083600481111561086b5761086a611259565b5b02179055507f000000000000000000000000000000000000000000000000000000000000000073ffffffffffffffffffffffffffffffffffffffff166323b872dd333084600201546040518463ffffffff1660e01b81526004016108d1939291906117cf565b6020604051808303815f875af11580156108ed573d5f5f3e3d5ffd5b505050506040513d601f19601f82011682018060405250810190610911919061173c565b610950576040517f08c379a00000000000000000000000000000000000000000000000000000000081526004016109479061184e565b60405180910390fd5b817f3b4f5a74452cddb80ae5a0d279eb7db6afd5e556e72ca2883016b1da7c9d211660405160405180910390a25050565b805f5f6101000a81548173ffffffffffffffffffffffffffffffffffffffff021916908373ffffffffffffffffffffffffffffffffffffffff16021790555050565b5f60025f8381526020019081526020015f209050600260048111156109eb576109ea611259565b5b816005015f9054906101000a900460ff166004811115610a0e57610a0d611259565b5b14610a4e576040517f08c379a0000000000000000000000000000000000000000000000000000000008152600401610a45906115f2565b60405180910390fd5b805f015f9054906101000a900473ffffffffffffffffffffffffffffffffffffffff1673ffffffffffffffffffffffffffffffffffffffff163373ffffffffffffffffffffffffffffffffffffffff1614610ade576040517f08c379a0000000000000000000000000000000000000000000000000000000008152600401610ad59061165a565b60405180910390fd5b6003816005015f6101000a81548160ff02191690836004811115610b0557610b04611259565b5b02179055505f6127105f60149054906101000a900461ffff1661ffff168360020154610b319190611899565b610b3b9190611907565b90505f818360020154610b4e9190611937565b90505f82118015610bab57505f73ffffffffffffffffffffffffffffffffffffffff165f5f9054906101000a900473ffffffffffffffffffffffffffffffffffffffff1673ffffffffffffffffffffffffffffffffffffffff1614155b15610cab577f000000000000000000000000000000000000000000000000000000000000000073ffffffffffffffffffffffffffffffffffffffff1663a9059cbb5f5f9054906101000a900473ffffffffffffffffffffffffffffffffffffffff16846040518363ffffffff1660e01b8152600401610c2b9291906116e0565b6020604051808303815f875af1158015610c47573d5f5f3e3d5ffd5b505050506040513d601f19601f82011682018060405250810190610c6b919061173c565b610caa576040517f08c379a0000000000000000000000000000000000000000000000000000000008152600401610ca1906119b4565b60405180910390fd5b5b7f000000000000000000000000000000000000000000000000000000000000000073ffffffffffffffffffffffffffffffffffffffff1663a9059cbb846001015f9054906101000a900473ffffffffffffffffffffffffffffffffffffffff16836040518363ffffffff1660e01b8152600401610d299291906116e0565b6020604051808303815f875af1158015610d45573d5f5f3e3d5ffd5b505050506040513d601f19601f82011682018060405250810190610d69919061173c565b610da8576040517f08c379a0000000000000000000000000000000000000000000000000000000008152600401610d9f90611a1c565b60405180910390fd5b837f3f324d125e471a3087ea47eb7b28f36f262807b16344d6ed0883a748c7386ced8383604051610dda929190611a3a565b60405180910390a250505050565b5f5f73ffffffffffffffffffffffffffffffffffffffff168573ffffffffffffffffffffffffffffffffffffffff1603610e57576040517f08c379a0000000000000000000000000000000000000000000000000000000008152600401610e4e90611aab565b60405180910390fd5b5f8411610e99576040517f08c379a0000000000000000000000000000000000000000000000000000000008152600401610e9090611b13565b60405180910390fd5b428311610edb576040517f08c379a0000000000000000000000000000000000000000000000000000000008152600401610ed290611b7b565b60405180910390fd5b60015f815480929190610eed90611b99565b9190505590506040518060c001604052803373ffffffffffffffffffffffffffffffffffffffff1681526020018673ffffffffffffffffffffffffffffffffffffffff16815260200185815260200184815260200183815260200160016004811115610f5c57610f5b611259565b5b81525060025f8381526020019081526020015f205f820151815f015f6101000a81548173ffffffffffffffffffffffffffffffffffffffff021916908373ffffffffffffffffffffffffffffffffffffffff1602179055506020820151816001015f6101000a81548173ffffffffffffffffffffffffffffffffffffffff021916908373ffffffffffffffffffffffffffffffffffffffff16021790555060408201518160020155606082015181600301556080820151816004015560a0820151816005015f6101000a81548160ff0219169083600481111561104257611041611259565b5b02179055509050508473ffffffffffffffffffffffffffffffffffffffff163373ffffffffffffffffffffffffffffffffffffffff16827fbf7ce086e8f705b7f76054c3a817eb537f4185f654689ca6bfb2828c20f75dc38787876040516110ac93929190611be0565b60405180910390a4949350505050565b60c88161ffff161115611104576040517f08c379a00000000000000000000000000000000000000000000000000000000081526004016110fb90611c5f565b60405180910390fd5b805f60146101000a81548161ffff021916908361ffff16021790555050565b6040518060c001604052805f73ffffffffffffffffffffffffffffffffffffffff1681526020015f73ffffffffffffffffffffffffffffffffffffffff1681526020015f81526020015f81526020015f81526020015f600481111561118b5761118a611259565b5b81525090565b5f5ffd5b5f819050919050565b6111a781611195565b81146111b1575f5ffd5b50565b5f813590506111c28161119e565b92915050565b5f602082840312156111dd576111dc611191565b5b5f6111ea848285016111b4565b91505092915050565b5f73ffffffffffffffffffffffffffffffffffffffff82169050919050565b5f61121c826111f3565b9050919050565b61122c81611212565b82525050565b61123b81611195565b82525050565b5f819050919050565b61125381611241565b82525050565b7f4e487b71000000000000000000000000000000000000000000000000000000005f52602160045260245ffd5b6005811061129757611296611259565b5b50565b5f8190506112a782611286565b919050565b5f6112b68261129a565b9050919050565b6112c6816112ac565b82525050565b5f60c0820190506112df5f830189611223565b6112ec6020830188611223565b6112f96040830187611232565b6113066060830186611232565b611313608083018561124a565b61132060a08301846112bd565b979650505050505050565b5f61ffff82169050919050565b6113418161132b565b811461134b575f5ffd5b50565b5f8135905061135c81611338565b92915050565b5f6020828403121561137757611376611191565b5b5f6113848482850161134e565b91505092915050565b6113968161132b565b82525050565b5f6020820190506113af5f83018461138d565b92915050565b5f6020820190506113c85f830184611223565b92915050565b6113d781611212565b82525050565b6113e681611195565b82525050565b6113f581611241565b82525050565b611404816112ac565b82525050565b60c082015f82015161141e5f8501826113ce565b50602082015161143160208501826113ce565b50604082015161144460408501826113dd565b50606082015161145760608501826113dd565b50608082015161146a60808501826113ec565b5060a082015161147d60a08501826113fb565b50505050565b5f60c0820190506114965f83018461140a565b92915050565b5f6020820190506114af5f830184611232565b92915050565b6114be81611212565b81146114c8575f5ffd5b50565b5f813590506114d9816114b5565b92915050565b5f602082840312156114f4576114f3611191565b5b5f611501848285016114cb565b91505092915050565b61151381611241565b811461151d575f5ffd5b50565b5f8135905061152e8161150a565b92915050565b5f5f5f5f6080858703121561154c5761154b611191565b5b5f611559878288016114cb565b945050602061156a878288016111b4565b935050604061157b878288016111b4565b925050606061158c87828801611520565b91505092959194509250565b5f82825260208201905092915050565b7f62616420737461746500000000000000000000000000000000000000000000005f82015250565b5f6115dc600983611598565b91506115e7826115a8565b602082019050919050565b5f6020820190508181035f830152611609816115d0565b9050919050565b7f6e6f74206465706f7369746f72000000000000000000000000000000000000005f82015250565b5f611644600d83611598565b915061164f82611610565b602082019050919050565b5f6020820190508181035f83015261167181611638565b9050919050565b7f746f6f206561726c7900000000000000000000000000000000000000000000005f82015250565b5f6116ac600983611598565b91506116b782611678565b602082019050919050565b5f6020820190508181035f8301526116d9816116a0565b9050919050565b5f6040820190506116f35f830185611223565b6117006020830184611232565b9392505050565b5f8115159050919050565b61171b81611707565b8114611725575f5ffd5b50565b5f8151905061173681611712565b92915050565b5f6020828403121561175157611750611191565b5b5f61175e84828501611728565b91505092915050565b7f726566756e64207472616e73666572206661696c6564000000000000000000005f82015250565b5f61179b601683611598565b91506117a682611767565b602082019050919050565b5f6020820190508181035f8301526117c88161178f565b9050919050565b5f6060820190506117e25f830186611223565b6117ef6020830185611223565b6117fc6040830184611232565b949350505050565b7f7472616e7366657246726f6d206661696c6564000000000000000000000000005f82015250565b5f611838601383611598565b915061184382611804565b602082019050919050565b5f6020820190508181035f8301526118658161182c565b9050919050565b7f4e487b71000000000000000000000000000000000000000000000000000000005f52601160045260245ffd5b5f6118a382611195565b91506118ae83611195565b92508282026118bc81611195565b915082820484148315176118d3576118d261186c565b5b5092915050565b7f4e487b71000000000000000000000000000000000000000000000000000000005f52601260045260245ffd5b5f61191182611195565b915061191c83611195565b92508261192c5761192b6118da565b5b828204905092915050565b5f61194182611195565b915061194c83611195565b92508282039050818111156119645761196361186c565b5b92915050565b7f666565207472616e73666572206661696c6564000000000000000000000000005f82015250565b5f61199e601383611598565b91506119a98261196a565b602082019050919050565b5f6020820190508181035f8301526119cb81611992565b9050919050565b7f7061796f7574207472616e73666572206661696c6564000000000000000000005f82015250565b5f611a06601683611598565b9150611a11826119d2565b602082019050919050565b5f6020820190508181035f830152611a33816119fa565b9050919050565b5f604082019050611a4d5f830185611232565b611a5a6020830184611232565b9392505050565b7f62656e65666963696172793d30000000000000000000000000000000000000005f82015250565b5f611a95600d83611598565b9150611aa082611a61565b602082019050919050565b5f6020820190508181035f830152611ac281611a89565b9050919050565b7f616d6f756e743d300000000000000000000000000000000000000000000000005f82015250565b5f611afd600883611598565b9150611b0882611ac9565b602082019050919050565b5f6020820190508181035f830152611b2a81611af1565b9050919050565b7f646561646c696e650000000000000000000000000000000000000000000000005f82015250565b5f611b65600883611598565b9150611b7082611b31565b602082019050919050565b5f6020820190508181035f830152611b9281611b59565b9050919050565b5f611ba382611195565b91507fffffffffffffffffffffffffffffffffffffffffffffffffffffffffffffffff8203611bd557611bd461186c565b5b600182019050919050565b5f606082019050611bf35f830186611232565b611c006020830185611232565b611c0d604083018461124a565b949350505050565b7f66656520746f6f206869676800000000000000000000000000000000000000005f82015250565b5f611c49600c83611598565b9150611c5482611c15565b602082019050919050565b5f6020820190508181035f830152611c7681611c3d565b905091905056fea26469706673582212208ddaa4d4188604161c0683089af0c66eddafeab12daa518917a7597588a0163c64736f6c634300081e0033","linkReferences":{}},"methodIdentifiers":{"createEscrow(address,uint256,uint256,bytes32)":"f41b994f","escrows(uint256)":"012f52ee","feeBps()":"24a9d853","feeRecipient()":"46904840","fundEscrow(uint256)":"c9c31af5","getEscrow(uint256)":"7d19e596","nextEscrowId()":"89cb29dd","refundEscrow(uint256)":"356f9dfd","releaseEscrow(uint256)":"ed653164","setFeeBps(uint16)":"023b1fc9","setFeeRecipient(address)":"e74b981b","usdc()":"3e413bee"},"id":16}